{"contracts/FriendtechSharesV1.sol":{"FriendtechSharesV1":{"abi":[{"anonymous":false,"inputs":[{"indexed":true,"internalType":"address","name":"previousOwner","type":"address"},{"indexed":true,"internalType":"address","name":"newOwner","type":"address"}],"name":"OwnershipTransferred","type":"event"},{"anonymous":false,"inputs":[{"indexed":false,"internalType":"address","name":"trader","type":"address"},{"indexed":false,"internalType":"address","name":"subject","type":"address"},{"indexed":false,"internalType":"bool","name":"isBuy","type":"bool"},{"indexed":false,"internalType":"uint256","name":"shareAmount","type":"uint256"},{"indexed":false,"internalType":"uint256","name":"ethAmount","type":"uint256"},{"indexed":false,"internalType":"uint256","name":"protocolEthAmount","type":"uint256"},{"indexed":false,"internalType":"uint256","name":"subjectEthAmount","type":"uint256"},{"indexed":false,"internalType":"uint256","name":"supply","type":"uint256"}],"name":"Trade","type":"event"},{"inputs":[{"internalType":"address","name":"sharesSubject","type":"address"},{"internalType":"uint256","name":"amount","type":"uint256"}],"name":"buyShares","outputs":[],"stateMutability":"payable","type":"function"},{"inputs":[{"internalType":"address","name":"sharesSubject","type":"address"},{"internalType":"uint256","name":"amount","type":"uint256"}],"name":"getBuyPrice","outputs":[{"internalType":"uint256","name":"","type":"uint256"}],"stateMutability":"view","type":"function"},{"inputs":[{"internalType":"address","name":"sharesSubject","type":"address"},{"internalType":"uint256","name":"amount","type":"uint256"}],"name":"getBuyPriceAfterFee","outputs":[{"internalType":"uint256","name":"","type":"uint256"}],"stateMutability":"view","type":"function"},{"inputs":[{"internalType":"uint256","name":"supply","type":"uint256"},{"internalType":"uint256","name":"amount","type":"uint256"}],"name":"getPrice","outputs":[{"internalType":"uint256","name":"","type":"uint256"}],"stateMutability":"pure","type":"function"},{"inputs":[{"internalType":"address","name":"sharesSubject","type":"address"},{"internalType":"uint256","name":"amount","type":"uint256"}],"name":"getSellPrice","outputs":[{"internalType":"uint256","name":"","type":"uint256"}],"stateMutability":"view","type":"function"},{"inputs":[{"internalType":"address","name":"sharesSubject","type":"address"},{"internalType":"uint256","name":"amount","type":"uint256"}],"name":"getSellPriceAfterFee","outputs":[{"internalType":"uint256","name":"","type":"uint256"}],"stateMutability":"view","type":"function"},{"inputs":[],"name":"owner","outputs":[{"internalType":"address","name":"","type":"address"}],"stateMutability":"view","type":"function"},{"inputs":[],"name":"protocolFeeDestination","outputs":[{"internalType":"address","name":"","type":"address"}],"stateMutability":"view","type":"function"},{"inputs":[],"name":"protocolFeePercent","outputs":[{"internalType":"uint256","name":"","type":"uint256"}],"stateMutability":"view","type":"function"},{"inputs":[],"name":"renounceOwnership","outputs":[],"stateMutability":"nonpayable","type":"function"},{"inputs":[{"internalType":"address","name":"sharesSubject","type":"address"},{"internalType":"uint256","name":"amount","type":"uint256"}],"name":"sellShares","outputs":[],"stateMutability":"payable","type":"function"},{"inputs":[{"internalType":"address","name":"_feeDestination","type":"address"}],"name":"setFeeDestination","outputs":[],"stateMutability":"nonpayable","type":"function"},{"inputs":[{"internalType":"uint256","name":"_feePercent","type":"uint256"}],"name":"setProtocolFeePercent","outputs":[],"stateMutability":"nonpayable","type":"function"},{"inputs":[{"internalType":"uint256","name":"_feePercent","type":"uint256"}],"name":"setSubjectFeePercent","outputs":[],"stateMutability":"nonpayable","type":"function"},{"inputs":[{"internalType":"address","name":"","type":"address"},{"internalType":"address","name":"","type":"address"}],"name":"sharesBalance","outputs":[{"internalType":"uint256","name":"","type":"uint256"}],"stateMutability":"view","type":"function"},{"inputs":[{"internalType":"address","name":"","type":"address"}],"name":"sharesSupply","outputs":[{"internalType":"uint256","name":"","type":"uint256"}],"stateMutability":"view","type":"function"},{"inputs":[],"name":"subjectFeePercent","outputs":[{"internalType":"uint256","name":"","type":"uint256"}],"stateMutability":"view","type":"function"},{"inputs":[{"internalType":"address","name":"newOwner","type":"address"}],"name":"transferOwnership","outputs":[],"stateMutability":"nonpayable","type":"function"}],"evm":{"bytecode":{"linkReferences":{},"object":"608060405234801561001057600080fd5b5061001a3361001f565b61006f565b600080546001600160a01b038381166001600160a01b0319831681178455604051919092169283917f8be0079c531659141344cd1fd0a4f28419497f9722a3daafe3b4186f6b6457e09190a35050565b61127b8061007e6000396000f3fe6080604052600436106101295760003560e01c8063715018a6116100a5578063b51d053411610074578063f2fde38b11610059578063f2fde38b1461033f578063f9931be01461035f578063fbe532341461038c57600080fd5b8063b51d053414610316578063d6e6eb9f1461032957600080fd5b8063715018a6146102965780638da5cb5b146102ab5780639ae71781146102d6578063a4983421146102f657600080fd5b80634635256e116100fc5780635a8a764e116100e15780635a8a764e146102415780635cf4ee91146102635780636945b1231461028357600080fd5b80634635256e146101cf5780634ce7957c146101ef57600080fd5b8063020235ff1461012e5780630f026f6d146101795780632267a89c1461019957806324dc441d146101b9575b600080fd5b34801561013a57600080fd5b506101666101493660046110eb565b600460209081526000928352604080842090915290825290205481565b6040519081526020015b60405180910390f35b34801561018557600080fd5b5061016661019436600461111e565b6103ac565b3480156101a557600080fd5b506101666101b436600461111e565b610426565b3480156101c557600080fd5b5061016660035481565b3480156101db57600080fd5b506101666101ea36600461111e565b610494565b3480156101fb57600080fd5b5060015461021c9073ffffffffffffffffffffffffffffffffffffffff1681565b60405173ffffffffffffffffffffffffffffffffffffffff9091168152602001610170565b34801561024d57600080fd5b5061026161025c366004611148565b6104cb565b005b34801561026f57600080fd5b5061016661027e366004611161565b6104d8565b61026161029136600461111e565b6105ef565b3480156102a257600080fd5b50610261610a08565b3480156102b757600080fd5b5060005473ffffffffffffffffffffffffffffffffffffffff1661021c565b3480156102e257600080fd5b506101666102f136600461111e565b610a1c565b34801561030257600080fd5b50610261610311366004611148565b610a57565b61026161032436600461111e565b610a64565b34801561033557600080fd5b5061016660025481565b34801561034b57600080fd5b5061026161035a366004611183565b610ec6565b34801561036b57600080fd5b5061016661037a366004611183565b60056020526000908152604090205481565b34801561039857600080fd5b506102616103a7366004611183565b610f7d565b6000806103b98484610494565b90506000670de0b6b3a7640000600254836103d491906111cd565b6103de91906111e4565b90506000670de0b6b3a7640000600354846103f991906111cd565b61040391906111e4565b905080610410838561121f565b61041a919061121f565b93505050505b92915050565b6000806104338484610a1c565b90506000670de0b6b3a76400006002548361044e91906111cd565b61045891906111e4565b90506000670de0b6b3a76400006003548461047391906111cd565b61047d91906111e4565b90508061048a8385611232565b61041a9190611232565b73ffffffffffffffffffffffffffffffffffffffff82166000908152600560205260408120546104c490836104d8565b9392505050565b6104d3610fcc565b600355565b60008083156105335760066104ee600186611232565b6104f99060026111cd565b61050490600161121f565b85610510600182611232565b61051a91906111cd565b61052491906111cd565b61052e91906111e4565b610536565b60005b90506000841580156105485750836001145b6105bd5760068461055a600188611232565b610564919061121f565b61056f9060026111cd565b61057a90600161121f565b610584868861121f565b8661059060018a611232565b61059a919061121f565b6105a491906111cd565b6105ae91906111cd565b6105b891906111e4565b6105c0565b60005b905060006105ce8383611232565b9050613e806105e582670de0b6b3a76400006111cd565b61041a91906111e4565b73ffffffffffffffffffffffffffffffffffffffff821660009081526005602052604090205480151580610638575073ffffffffffffffffffffffffffffffffffffffff831633145b6106c9576040517f08c379a000000000000000000000000000000000000000000000000000000000815260206004820152603060248201527f4f6e6c79207468652073686172657327207375626a6563742063616e2062757960448201527f207468652066697273742073686172650000000000000000000000000000000060648201526084015b60405180910390fd5b60006106d582846104d8565b90506000670de0b6b3a7640000600254836106f091906111cd565b6106fa91906111e4565b90506000670de0b6b3a76400006003548461071591906111cd565b61071f91906111e4565b90508061072c838561121f565b610736919061121f565b34101561079f576040517f08c379a000000000000000000000000000000000000000000000000000000000815260206004820152601460248201527f496e73756666696369656e74207061796d656e7400000000000000000000000060448201526064016106c0565b73ffffffffffffffffffffffffffffffffffffffff861660009081526004602090815260408083203384529091529020546107db90869061121f565b73ffffffffffffffffffffffffffffffffffffffff87166000908152600460209081526040808320338452909152902055610816858561121f565b73ffffffffffffffffffffffffffffffffffffffff87166000908152600560205260409020557f2c76e7a47fd53e2854856ac3f0a5f3ee40d15cfaa82266357ea9779c486ab9c3338760018887878761086f848d61121f565b6040805173ffffffffffffffffffffffffffffffffffffffff998a168152979098166020880152941515868801526060860193909352608085019190915260a084015260c083015260e08201529051908190036101000190a160015460405160009173ffffffffffffffffffffffffffffffffffffffff169084908381818185875af1925050503d8060008114610922576040519150601f19603f3d011682016040523d82523d6000602084013e610927565b606091505b5050905060008773ffffffffffffffffffffffffffffffffffffffff168360405160006040518083038185875af1925050503d8060008114610985576040519150601f19603f3d011682016040523d82523d6000602084013e61098a565b606091505b505090508180156109985750805b6109fe576040517f08c379a000000000000000000000000000000000000000000000000000000000815260206004820152601460248201527f556e61626c6520746f2073656e642066756e647300000000000000000000000060448201526064016106c0565b5050505050505050565b610a10610fcc565b610a1a600061104d565b565b73ffffffffffffffffffffffffffffffffffffffff82166000908152600560205260408120546104c490610a51908490611232565b836104d8565b610a5f610fcc565b600255565b73ffffffffffffffffffffffffffffffffffffffff8216600090815260056020526040902054818111610af3576040517f08c379a000000000000000000000000000000000000000000000000000000000815260206004820152601a60248201527f43616e6e6f742073656c6c20746865206c61737420736861726500000000000060448201526064016106c0565b6000610b08610b028484611232565b846104d8565b90506000670de0b6b3a764000060025483610b2391906111cd565b610b2d91906111e4565b90506000670de0b6b3a764000060035484610b4891906111cd565b610b5291906111e4565b73ffffffffffffffffffffffffffffffffffffffff87166000908152600460209081526040808320338452909152902054909150851115610bef576040517f08c379a000000000000000000000000000000000000000000000000000000000815260206004820152601360248201527f496e73756666696369656e74207368617265730000000000000000000000000060448201526064016106c0565b73ffffffffffffffffffffffffffffffffffffffff86166000908152600460209081526040808320338452909152902054610c2b908690611232565b73ffffffffffffffffffffffffffffffffffffffff87166000908152600460209081526040808320338452909152902055610c668585611232565b73ffffffffffffffffffffffffffffffffffffffff87166000908152600560205260408120919091557f2c76e7a47fd53e2854856ac3f0a5f3ee40d15cfaa82266357ea9779c486ab9c3903390889088878787610cc3848d611232565b6040805173ffffffffffffffffffffffffffffffffffffffff998a168152979098166020880152941515868801526060860193909352608085019190915260a084015260c083015260e08201529051908190036101000190a160003382610d2a8587611232565b610d349190611232565b604051600081818185875af1925050503d8060008114610d70576040519150601f19603f3d011682016040523d82523d6000602084013e610d75565b606091505b505060015460405191925060009173ffffffffffffffffffffffffffffffffffffffff9091169085908381818185875af1925050503d8060008114610dd6576040519150601f19603f3d011682016040523d82523d6000602084013e610ddb565b606091505b5050905060008873ffffffffffffffffffffffffffffffffffffffff168460405160006040518083038185875af1925050503d8060008114610e39576040519150601f19603f3d011682016040523d82523d6000602084013e610e3e565b606091505b50509050828015610e4c5750815b8015610e555750805b610ebb576040517f08c379a000000000000000000000000000000000000000000000000000000000815260206004820152601460248201527f556e61626c6520746f2073656e642066756e647300000000000000000000000060448201526064016106c0565b505050505050505050565b610ece610fcc565b73ffffffffffffffffffffffffffffffffffffffff8116610f71576040517f08c379a000000000000000000000000000000000000000000000000000000000815260206004820152602660248201527f4f776e61626c653a206e6577206f776e657220697320746865207a65726f206160448201527f646472657373000000000000000000000000000000000000000000000000000060648201526084016106c0565b610f7a8161104d565b50565b610f85610fcc565b600180547fffffffffffffffffffffffff00000000000000000000000000000000000000001673ffffffffffffffffffffffffffffffffffffffff92909216919091179055565b60005473ffffffffffffffffffffffffffffffffffffffff163314610a1a576040517f08c379a000000000000000000000000000000000000000000000000000000000815260206004820181905260248201527f4f776e61626c653a2063616c6c6572206973206e6f7420746865206f776e657260448201526064016106c0565b6000805473ffffffffffffffffffffffffffffffffffffffff8381167fffffffffffffffffffffffff0000000000000000000000000000000000000000831681178455604051919092169283917f8be0079c531659141344cd1fd0a4f28419497f9722a3daafe3b4186f6b6457e09190a35050565b803573ffffffffffffffffffffffffffffffffffffffff811681146110e657600080fd5b919050565b600080604083850312156110fe57600080fd5b611107836110c2565b9150611115602084016110c2565b90509250929050565b6000806040838503121561113157600080fd5b61113a836110c2565b946020939093013593505050565b60006020828403121561115a57600080fd5b5035919050565b6000806040838503121561117457600080fd5b50508035926020909101359150565b60006020828403121561119557600080fd5b6104c4826110c2565b7f4e487b7100000000000000000000000000000000000000000000000000000000600052601160045260246000fd5b80820281158282048414176104205761042061119e565b60008261121a577f4e487b7100000000000000000000000000000000000000000000000000000000600052601260045260246000fd5b500490565b808201808211156104205761042061119e565b818103818111156104205761042061119e56fea2646970667358221220339447692a9ddd622301d72d341c3fe6defa93ee97945e870c496d2762e1e63364736f6c63430008120033","opcodes":"PUSH1 0x80 PUSH1 0x40 MSTORE CALLVALUE DUP1 ISZERO PUSH2 0x10 JUMPI PUSH1 0x0 DUP1 REVERT JUMPDEST POP PUSH2 0x1A CALLER PUSH2 0x1F JUMP JUMPDEST PUSH2 0x6F JUMP JUMPDEST PUSH1 0x0 DUP1 SLOAD PUSH1 0x1 PUSH1 0x1 PUSH1 0xA0 SHL SUB DUP4 DUP2 AND PUSH1 0x1 PUSH1 0x1 PUSH1 0xA0 SHL SUB NOT DUP4 AND DUP2 OR DUP5 SSTORE PUSH1 0x40 MLOAD SWAP2 SWAP1 SWAP3 AND SWAP3 DUP4 SWAP2 PUSH32 0x8BE0079C531659141344CD1FD0A4F28419497F9722A3DAAFE3B4186F6B6457E0 SWAP2 SWAP1 LOG3 POP POP JUMP JUMPDEST PUSH2 0x127B DUP1 PUSH2 0x7E PUSH1 0x0 CODECOPY PUSH1 0x0 RETURN INVALID PUSH1 0x80 PUSH1 0x40 MSTORE PUSH1 0x4 CALLDATASIZE LT PUSH2 0x129 JUMPI PUSH1 0x0 CALLDATALOAD PUSH1 0xE0 SHR DUP1 PUSH4 0x715018A6 GT PUSH2 0xA5 JUMPI DUP1 PUSH4 0xB51D0534 GT PUSH2 0x74 JUMPI DUP1 PUSH4 0xF2FDE38B GT PUSH2 0x59 JUMPI DUP1 PUSH4 0xF2FDE38B EQ PUSH2 0x33F JUMPI DUP1 PUSH4 0xF9931BE0 EQ PUSH2 0x35F JUMPI DUP1 PUSH4 0xFBE53234 EQ PUSH2 0x38C JUMPI PUSH1 0x0 DUP1 REVERT JUMPDEST DUP1 PUSH4 0xB51D0534 EQ PUSH2 0x316 JUMPI DUP1 PUSH4 0xD6E6EB9F EQ PUSH2 0x329 JUMPI PUSH1 0x0 DUP1 REVERT JUMPDEST DUP1 PUSH4 0x715018A6 EQ PUSH2 0x296 JUMPI DUP1 PUSH4 0x8DA5CB5B EQ PUSH2 0x2AB JUMPI DUP1 PUSH4 0x9AE71781 EQ PUSH2 0x2D6 JUMPI DUP1 PUSH4 0xA4983421 EQ PUSH2 0x2F6 JUMPI PUSH1 0x0 DUP1 REVERT JUMPDEST DUP1 PUSH4 0x4635256E GT PUSH2 0xFC JUMPI DUP1 PUSH4 0x5A8A764E GT PUSH2 0xE1 JUMPI DUP1 PUSH4 0x5A8A764E EQ PUSH2 0x241 JUMPI DUP1 PUSH4 0x5CF4EE91 EQ PUSH2 0x263 JUMPI DUP1 PUSH4 0x6945B123 EQ PUSH2 0x283 JUMPI PUSH1 0x0 DUP1 REVERT JUMPDEST DUP1 PUSH4 0x4635256E EQ PUSH2 0x1CF JUMPI DUP1 PUSH4 0x4CE7957C EQ PUSH2 0x1EF JUMPI PUSH1 0x0 DUP1 REVERT JUMPDEST DUP1 PUSH4 0x20235FF EQ PUSH2 0x12E JUMPI DUP1 PUSH4 0xF026F6D EQ PUSH2 0x179 JUMPI DUP1 PUSH4 0x2267A89C EQ PUSH2 0x199 JUMPI DUP1 PUSH4 0x24DC441D EQ PUSH2 0x1B9 JUMPI JUMPDEST PUSH1 0x0 DUP1 REVERT JUMPDEST CALLVALUE DUP1 ISZERO PUSH2 0x13A JUMPI PUSH1 0x0 DUP1 REVERT JUMPDEST POP PUSH2 0x166 PUSH2 0x149 CALLDATASIZE PUSH1 0x4 PUSH2 0x10EB JUMP JUMPDEST PUSH1 0x4 PUSH1 0x20 SWAP1 DUP2 MSTORE PUSH1 0x0 SWAP3 DUP4 MSTORE PUSH1 0x40 DUP1 DUP5 KECCAK256 SWAP1 SWAP2 MSTORE SWAP1 DUP3 MSTORE SWAP1 KECCAK256 SLOAD DUP2 JUMP JUMPDEST PUSH1 0x40 MLOAD SWAP1 DUP2 MSTORE PUSH1 0x20 ADD JUMPDEST PUSH1 0x40 MLOAD DUP1 SWAP2 SUB SWAP1 RETURN JUMPDEST CALLVALUE DUP1 ISZERO PUSH2 0x185 JUMPI PUSH1 0x0 DUP1 REVERT JUMPDEST POP PUSH2 0x166 PUSH2 0x194 CALLDATASIZE PUSH1 0x4 PUSH2 0x111E JUMP JUMPDEST PUSH2 0x3AC JUMP JUMPDEST CALLVALUE DUP1 ISZERO PUSH2 0x1A5 JUMPI PUSH1 0x0 DUP1 REVERT JUMPDEST POP PUSH2 0x166 PUSH2 0x1B4 CALLDATASIZE PUSH1 0x4 PUSH2 0x111E JUMP JUMPDEST PUSH2 0x426 JUMP JUMPDEST CALLVALUE DUP1 ISZERO PUSH2 0x1C5 JUMPI PUSH1 0x0 DUP1 REVERT JUMPDEST POP PUSH2 0x166 PUSH1 0x3 SLOAD DUP2 JUMP JUMPDEST CALLVALUE DUP1 ISZERO PUSH2 0x1DB JUMPI PUSH1 0x0 DUP1 REVERT JUMPDEST POP PUSH2 0x166 PUSH2 0x1EA CALLDATASIZE PUSH1 0x4 PUSH2 0x111E JUMP JUMPDEST PUSH2 0x494 JUMP JUMPDEST CALLVALUE DUP1 ISZERO PUSH2 0x1FB JUMPI PUSH1 0x0 DUP1 REVERT JUMPDEST POP PUSH1 0x1 SLOAD PUSH2 0x21C SWAP1 PUSH20 0xFFFFFFFFFFFFFFFFFFFFFFFFFFFFFFFFFFFFFFFF AND DUP2 JUMP JUMPDEST PUSH1 0x40 MLOAD PUSH20 0xFFFFFFFFFFFFFFFFFFFFFFFFFFFFFFFFFFFFFFFF SWAP1 SWAP2 AND DUP2 MSTORE PUSH1 0x20 ADD PUSH2 0x170 JUMP JUMPDEST CALLVALUE DUP1 ISZERO PUSH2 0x24D JUMPI PUSH1 0x0 DUP1 REVERT JUMPDEST POP PUSH2 0x261 PUSH2 0x25C CALLDATASIZE PUSH1 0x4 PUSH2 0x1148 JUMP JUMPDEST PUSH2 0x4CB JUMP JUMPDEST STOP JUMPDEST CALLVALUE DUP1 ISZERO PUSH2 0x26F JUMPI PUSH1 0x0 DUP1 REVERT JUMPDEST POP PUSH2 0x166 PUSH2 0x27E CALLDATASIZE PUSH1 0x4 PUSH2 0x1161 JUMP JUMPDEST PUSH2 0x4D8 JUMP JUMPDEST PUSH2 0x261 PUSH2 0x291 CALLDATASIZE PUSH1 0x4 PUSH2 0x111E JUMP JUMPDEST PUSH2 0x5EF JUMP JUMPDEST CALLVALUE DUP1 ISZERO PUSH2 0x2A2 JUMPI PUSH1 0x0 DUP1 REVERT JUMPDEST POP PUSH2 0x261 PUSH2 0xA08 JUMP JUMPDEST CALLVALUE DUP1 ISZERO PUSH2 0x2B7 JUMPI PUSH1 0x0 DUP1 REVERT JUMPDEST POP PUSH1 0x0 SLOAD PUSH20 0xFFFFFFFFFFFFFFFFFFFFFFFFFFFFFFFFFFFFFFFF AND PUSH2 0x21C JUMP JUMPDEST CALLVALUE DUP1 ISZERO PUSH2 0x2E2 JUMPI PUSH1 0x0 DUP1 REVERT JUMPDEST POP PUSH2 0x166 PUSH2 0x2F1 CALLDATASIZE PUSH1 0x4 PUSH2 0x111E JUMP JUMPDEST PUSH2 0xA1C JUMP JUMPDEST CALLVALUE DUP1 ISZERO PUSH2 0x302 JUMPI PUSH1 0x0 DUP1 REVERT JUMPDEST POP PUSH2 0x261 PUSH2 0x311 CALLDATASIZE PUSH1 0x4 PUSH2 0x1148 JUMP JUMPDEST PUSH2 0xA57 JUMP JUMPDEST PUSH2 0x261 PUSH2 0x324 CALLDATASIZE PUSH1 0x4 PUSH2 0x111E JUMP JUMPDEST PUSH2 0xA64 JUMP JUMPDEST CALLVALUE DUP1 ISZERO PUSH2 0x335 JUMPI PUSH1 0x0 DUP1 REVERT JUMPDEST POP PUSH2 0x166 PUSH1 0x2 SLOAD DUP2 JUMP JUMPDEST CALLVALUE DUP1 ISZERO PUSH2 0x34B JUMPI PUSH1 0x0 DUP1 REVERT JUMPDEST POP PUSH2 0x261 PUSH2 0x35A CALLDATASIZE PUSH1 0x4 PUSH2 0x1183 JUMP JUMPDEST PUSH2 0xEC6 JUMP JUMPDEST CALLVALUE DUP1 ISZERO PUSH2 0x36B JUMPI PUSH1 0x0 DUP1 REVERT JUMPDEST POP PUSH2 0x166 PUSH2 0x37A CALLDATASIZE PUSH1 0x4 PUSH2 0x1183 JUMP JUMPDEST PUSH1 0x5 PUSH1 0x20 MSTORE PUSH1 0x0 SWAP1 DUP2 MSTORE PUSH1 0x40 SWAP1 KECCAK256 SLOAD DUP2 JUMP JUMPDEST CALLVALUE DUP1 ISZERO PUSH2 0x398 JUMPI PUSH1 0x0 DUP1 REVERT JUMPDEST POP PUSH2 0x261 PUSH2 0x3A7 CALLDATASIZE PUSH1 0x4 PUSH2 0x1183 JUMP JUMPDEST PUSH2 0xF7D JUMP JUMPDEST PUSH1 0x0 DUP1 PUSH2 0x3B9 DUP5 DUP5 PUSH2 0x494 JUMP JUMPDEST SWAP1 POP PUSH1 0x0 PUSH8 0xDE0B6B3A7640000 PUSH1 0x2 SLOAD DUP4 PUSH2 0x3D4 SWAP2 SWAP1 PUSH2 0x11CD JUMP JUMPDEST PUSH2 0x3DE SWAP2 SWAP1 PUSH2 0x11E4 JUMP JUMPDEST SWAP1 POP PUSH1 0x0 PUSH8 0xDE0B6B3A7640000 PUSH1 0x3 SLOAD DUP5 PUSH2 0x3F9 SWAP2 SWAP1 PUSH2 0x11CD JUMP JUMPDEST PUSH2 0x403 SWAP2 SWAP1 PUSH2 0x11E4 JUMP JUMPDEST SWAP1 POP DUP1 PUSH2 0x410 DUP4 DUP6 PUSH2 0x121F JUMP JUMPDEST PUSH2 0x41A SWAP2 SWAP1 PUSH2 0x121F JUMP JUMPDEST SWAP4 POP POP POP POP JUMPDEST SWAP3 SWAP2 POP POP JUMP JUMPDEST PUSH1 0x0 DUP1 PUSH2 0x433 DUP5 DUP5 PUSH2 0xA1C JUMP JUMPDEST SWAP1 POP PUSH1 0x0 PUSH8 0xDE0B6B3A7640000 PUSH1 0x2 SLOAD DUP4 PUSH2 0x44E SWAP2 SWAP1 PUSH2 0x11CD JUMP JUMPDEST PUSH2 0x458 SWAP2 SWAP1 PUSH2 0x11E4 JUMP JUMPDEST SWAP1 POP PUSH1 0x0 PUSH8 0xDE0B6B3A7640000 PUSH1 0x3 SLOAD DUP5 PUSH2 0x473 SWAP2 SWAP1 PUSH2 0x11CD JUMP JUMPDEST PUSH2 0x47D SWAP2 SWAP1 PUSH2 0x11E4 JUMP JUMPDEST SWAP1 POP DUP1 PUSH2 0x48A DUP4 DUP6 PUSH2 0x1232 JUMP JUMPDEST PUSH2 0x41A SWAP2 SWAP1 PUSH2 0x1232 JUMP JUMPDEST PUSH20 0xFFFFFFFFFFFFFFFFFFFFFFFFFFFFFFFFFFFFFFFF DUP3 AND PUSH1 0x0 SWAP1 DUP2 MSTORE PUSH1 0x5 PUSH1 0x20 MSTORE PUSH1 0x40 DUP2 KECCAK256 SLOAD PUSH2 0x4C4 SWAP1 DUP4 PUSH2 0x4D8 JUMP JUMPDEST SWAP4 SWAP3 POP POP POP JUMP JUMPDEST PUSH2 0x4D3 PUSH2 0xFCC JUMP JUMPDEST PUSH1 0x3 SSTORE JUMP JUMPDEST PUSH1 0x0 DUP1 DUP4 ISZERO PUSH2 0x533 JUMPI PUSH1 0x6 PUSH2 0x4EE PUSH1 0x1 DUP7 PUSH2 0x1232 JUMP JUMPDEST PUSH2 0x4F9 SWAP1 PUSH1 0x2 PUSH2 0x11CD JUMP JUMPDEST PUSH2 0x504 SWAP1 PUSH1 0x1 PUSH2 0x121F JUMP JUMPDEST DUP6 PUSH2 0x510 PUSH1 0x1 DUP3 PUSH2 0x1232 JUMP JUMPDEST PUSH2 0x51A SWAP2 SWAP1 PUSH2 0x11CD JUMP JUMPDEST PUSH2 0x524 SWAP2 SWAP1 PUSH2 0x11CD JUMP JUMPDEST PUSH2 0x52E SWAP2 SWAP1 PUSH2 0x11E4 JUMP JUMPDEST PUSH2 0x536 JUMP JUMPDEST PUSH1 0x0 JUMPDEST SWAP1 POP PUSH1 0x0 DUP5 ISZERO DUP1 ISZERO PUSH2 0x548 JUMPI POP DUP4 PUSH1 0x1 EQ JUMPDEST PUSH2 0x5BD JUMPI PUSH1 0x6 DUP5 PUSH2 0x55A PUSH1 0x1 DUP9 PUSH2 0x1232 JUMP JUMPDEST PUSH2 0x564 SWAP2 SWAP1 PUSH2 0x121F JUMP JUMPDEST PUSH2 0x56F SWAP1 PUSH1 0x2 PUSH2 0x11CD JUMP JUMPDEST PUSH2 0x57A SWAP1 PUSH1 0x1 PUSH2 0x121F JUMP JUMPDEST PUSH2 0x584 DUP7 DUP9 PUSH2 0x121F JUMP JUMPDEST DUP7 PUSH2 0x590 PUSH1 0x1 DUP11 PUSH2 0x1232 JUMP JUMPDEST PUSH2 0x59A SWAP2 SWAP1 PUSH2 0x121F JUMP JUMPDEST PUSH2 0x5A4 SWAP2 SWAP1 PUSH2 0x11CD JUMP JUMPDEST PUSH2 0x5AE SWAP2 SWAP1 PUSH2 0x11CD JUMP JUMPDEST PUSH2 0x5B8 SWAP2 SWAP1 PUSH2 0x11E4 JUMP JUMPDEST PUSH2 0x5C0 JUMP JUMPDEST PUSH1 0x0 JUMPDEST SWAP1 POP PUSH1 0x0 PUSH2 0x5CE DUP4 DUP4 PUSH2 0x1232 JUMP JUMPDEST SWAP1 POP PUSH2 0x3E80 PUSH2 0x5E5 DUP3 PUSH8 0xDE0B6B3A7640000 PUSH2 0x11CD JUMP JUMPDEST PUSH2 0x41A SWAP2 SWAP1 PUSH2 0x11E4 JUMP JUMPDEST PUSH20 0xFFFFFFFFFFFFFFFFFFFFFFFFFFFFFFFFFFFFFFFF DUP3 AND PUSH1 0x0 SWAP1 DUP2 MSTORE PUSH1 0x5 PUSH1 0x20 MSTORE PUSH1 0x40 SWAP1 KECCAK256 SLOAD DUP1 ISZERO ISZERO DUP1 PUSH2 0x638 JUMPI POP PUSH20 0xFFFFFFFFFFFFFFFFFFFFFFFFFFFFFFFFFFFFFFFF DUP4 AND CALLER EQ JUMPDEST PUSH2 0x6C9 JUMPI PUSH1 0x40 MLOAD PUSH32 0x8C379A000000000000000000000000000000000000000000000000000000000 DUP2 MSTORE PUSH1 0x20 PUSH1 0x4 DUP3 ADD MSTORE PUSH1 0x30 PUSH1 0x24 DUP3 ADD MSTORE PUSH32 0x4F6E6C79207468652073686172657327207375626A6563742063616E20627579 PUSH1 0x44 DUP3 ADD MSTORE PUSH32 0x2074686520666972737420736861726500000000000000000000000000000000 PUSH1 0x64 DUP3 ADD MSTORE PUSH1 0x84 ADD JUMPDEST PUSH1 0x40 MLOAD DUP1 SWAP2 SUB SWAP1 REVERT JUMPDEST PUSH1 0x0 PUSH2 0x6D5 DUP3 DUP5 PUSH2 0x4D8 JUMP JUMPDEST SWAP1 POP PUSH1 0x0 PUSH8 0xDE0B6B3A7640000 PUSH1 0x2 SLOAD DUP4 PUSH2 0x6F0 SWAP2 SWAP1 PUSH2 0x11CD JUMP JUMPDEST PUSH2 0x6FA SWAP2 SWAP1 PUSH2 0x11E4 JUMP JUMPDEST SWAP1 POP PUSH1 0x0 PUSH8 0xDE0B6B3A7640000 PUSH1 0x3 SLOAD DUP5 PUSH2 0x715 SWAP2 SWAP1 PUSH2 0x11CD JUMP JUMPDEST PUSH2 0x71F SWAP2 SWAP1 PUSH2 0x11E4 JUMP JUMPDEST SWAP1 POP DUP1 PUSH2 0x72C DUP4 DUP6 PUSH2 0x121F JUMP JUMPDEST PUSH2 0x736 SWAP2 SWAP1 PUSH2 0x121F JUMP JUMPDEST CALLVALUE LT ISZERO PUSH2 0x79F JUMPI PUSH1 0x40 MLOAD PUSH32 0x8C379A000000000000000000000000000000000000000000000000000000000 DUP2 MSTORE PUSH1 0x20 PUSH1 0x4 DUP3 ADD MSTORE PUSH1 0x14 PUSH1 0x24 DUP3 ADD MSTORE PUSH32 0x496E73756666696369656E74207061796D656E74000000000000000000000000 PUSH1 0x44 DUP3 ADD MSTORE PUSH1 0x64 ADD PUSH2 0x6C0 JUMP JUMPDEST PUSH20 0xFFFFFFFFFFFFFFFFFFFFFFFFFFFFFFFFFFFFFFFF DUP7 AND PUSH1 0x0 SWAP1 DUP2 MSTORE PUSH1 0x4 PUSH1 0x20 SWAP1 DUP2 MSTORE PUSH1 0x40 DUP1 DUP4 KECCAK256 CALLER DUP5 MSTORE SWAP1 SWAP2 MSTORE SWAP1 KECCAK256 SLOAD PUSH2 0x7DB SWAP1 DUP7 SWAP1 PUSH2 0x121F JUMP JUMPDEST PUSH20 0xFFFFFFFFFFFFFFFFFFFFFFFFFFFFFFFFFFFFFFFF DUP8 AND PUSH1 0x0 SWAP1 DUP2 MSTORE PUSH1 0x4 PUSH1 0x20 SWAP1 DUP2 MSTORE PUSH1 0x40 DUP1 DUP4 KECCAK256 CALLER DUP5 MSTORE SWAP1 SWAP2 MSTORE SWAP1 KECCAK256 SSTORE PUSH2 0x816 DUP6 DUP6 PUSH2 0x121F JUMP JUMPDEST PUSH20 0xFFFFFFFFFFFFFFFFFFFFFFFFFFFFFFFFFFFFFFFF DUP8 AND PUSH1 0x0 SWAP1 DUP2 MSTORE PUSH1 0x5 PUSH1 0x20 MSTORE PUSH1 0x40 SWAP1 KECCAK256 SSTORE PUSH32 0x2C76E7A47FD53E2854856AC3F0A5F3EE40D15CFAA82266357EA9779C486AB9C3 CALLER DUP8 PUSH1 0x1 DUP9 DUP8 DUP8 DUP8 PUSH2 0x86F DUP5 DUP14 PUSH2 0x121F JUMP JUMPDEST PUSH1 0x40 DUP1 MLOAD PUSH20 0xFFFFFFFFFFFFFFFFFFFFFFFFFFFFFFFFFFFFFFFF SWAP10 DUP11 AND DUP2 MSTORE SWAP8 SWAP1 SWAP9 AND PUSH1 0x20 DUP9 ADD MSTORE SWAP5 ISZERO ISZERO DUP7 DUP9 ADD MSTORE PUSH1 0x60 DUP7 ADD SWAP4 SWAP1 SWAP4 MSTORE PUSH1 0x80 DUP6 ADD SWAP2 SWAP1 SWAP2 MSTORE PUSH1 0xA0 DUP5 ADD MSTORE PUSH1 0xC0 DUP4 ADD MSTORE PUSH1 0xE0 DUP3 ADD MSTORE SWAP1 MLOAD SWAP1 DUP2 SWAP1 SUB PUSH2 0x100 ADD SWAP1 LOG1 PUSH1 0x1 SLOAD PUSH1 0x40 MLOAD PUSH1 0x0 SWAP2 PUSH20 0xFFFFFFFFFFFFFFFFFFFFFFFFFFFFFFFFFFFFFFFF AND SWAP1 DUP5 SWAP1 DUP4 DUP2 DUP2 DUP2 DUP6 DUP8 GAS CALL SWAP3 POP POP POP RETURNDATASIZE DUP1 PUSH1 0x0 DUP2 EQ PUSH2 0x922 JUMPI PUSH1 0x40 MLOAD SWAP2 POP PUSH1 0x1F NOT PUSH1 0x3F RETURNDATASIZE ADD AND DUP3 ADD PUSH1 0x40 MSTORE RETURNDATASIZE DUP3 MSTORE RETURNDATASIZE PUSH1 0x0 PUSH1 0x20 DUP5 ADD RETURNDATACOPY PUSH2 0x927 JUMP JUMPDEST PUSH1 0x60 SWAP2 POP JUMPDEST POP POP SWAP1 POP PUSH1 0x0 DUP8 PUSH20 0xFFFFFFFFFFFFFFFFFFFFFFFFFFFFFFFFFFFFFFFF AND DUP4 PUSH1 0x40 MLOAD PUSH1 0x0 PUSH1 0x40 MLOAD DUP1 DUP4 SUB DUP2 DUP6 DUP8 GAS CALL SWAP3 POP POP POP RETURNDATASIZE DUP1 PUSH1 0x0 DUP2 EQ PUSH2 0x985 JUMPI PUSH1 0x40 MLOAD SWAP2 POP PUSH1 0x1F NOT PUSH1 0x3F RETURNDATASIZE ADD AND DUP3 ADD PUSH1 0x40 MSTORE RETURNDATASIZE DUP3 MSTORE RETURNDATASIZE PUSH1 0x0 PUSH1 0x20 DUP5 ADD RETURNDATACOPY PUSH2 0x98A JUMP JUMPDEST PUSH1 0x60 SWAP2 POP JUMPDEST POP POP SWAP1 POP DUP2 DUP1 ISZERO PUSH2 0x998 JUMPI POP DUP1 JUMPDEST PUSH2 0x9FE JUMPI PUSH1 0x40 MLOAD PUSH32 0x8C379A000000000000000000000000000000000000000000000000000000000 DUP2 MSTORE PUSH1 0x20 PUSH1 0x4 DUP3 ADD MSTORE PUSH1 0x14 PUSH1 0x24 DUP3 ADD MSTORE PUSH32 0x556E61626C6520746F2073656E642066756E6473000000000000000000000000 PUSH1 0x44 DUP3 ADD MSTORE PUSH1 0x64 ADD PUSH2 0x6C0 JUMP JUMPDEST POP POP POP POP POP POP POP POP JUMP JUMPDEST PUSH2 0xA10 PUSH2 0xFCC JUMP JUMPDEST PUSH2 0xA1A PUSH1 0x0 PUSH2 0x104D JUMP JUMPDEST JUMP JUMPDEST PUSH20 0xFFFFFFFFFFFFFFFFFFFFFFFFFFFFFFFFFFFFFFFF DUP3 AND PUSH1 0x0 SWAP1 DUP2 MSTORE PUSH1 0x5 PUSH1 0x20 MSTORE PUSH1 0x40 DUP2 KECCAK256 SLOAD PUSH2 0x4C4 SWAP1 PUSH2 0xA51 SWAP1 DUP5 SWAP1 PUSH2 0x1232 JUMP JUMPDEST DUP4 PUSH2 0x4D8 JUMP JUMPDEST PUSH2 0xA5F PUSH2 0xFCC JUMP JUMPDEST PUSH1 0x2 SSTORE JUMP JUMPDEST PUSH20 0xFFFFFFFFFFFFFFFFFFFFFFFFFFFFFFFFFFFFFFFF DUP3 AND PUSH1 0x0 SWAP1 DUP2 MSTORE PUSH1 0x5 PUSH1 0x20 MSTORE PUSH1 0x40 SWAP1 KECCAK256 SLOAD DUP2 DUP2 GT PUSH2 0xAF3 JUMPI PUSH1 0x40 MLOAD PUSH32 0x8C379A000000000000000000000000000000000000000000000000000000000 DUP2 MSTORE PUSH1 0x20 PUSH1 0x4 DUP3 ADD MSTORE PUSH1 0x1A PUSH1 0x24 DUP3 ADD MSTORE PUSH32 0x43616E6E6F742073656C6C20746865206C617374207368617265000000000000 PUSH1 0x44 DUP3 ADD MSTORE PUSH1 0x64 ADD PUSH2 0x6C0 JUMP JUMPDEST PUSH1 0x0 PUSH2 0xB08 PUSH2 0xB02 DUP5 DUP5 PUSH2 0x1232 JUMP JUMPDEST DUP5 PUSH2 0x4D8 JUMP JUMPDEST SWAP1 POP PUSH1 0x0 PUSH8 0xDE0B6B3A7640000 PUSH1 0x2 SLOAD DUP4 PUSH2 0xB23 SWAP2 SWAP1 PUSH2 0x11CD JUMP JUMPDEST PUSH2 0xB2D SWAP2 SWAP1 PUSH2 0x11E4 JUMP JUMPDEST SWAP1 POP PUSH1 0x0 PUSH8 0xDE0B6B3A7640000 PUSH1 0x3 SLOAD DUP5 PUSH2 0xB48 SWAP2 SWAP1 PUSH2 0x11CD JUMP JUMPDEST PUSH2 0xB52 SWAP2 SWAP1 PUSH2 0x11E4 JUMP JUMPDEST PUSH20 0xFFFFFFFFFFFFFFFFFFFFFFFFFFFFFFFFFFFFFFFF DUP8 AND PUSH1 0x0 SWAP1 DUP2 MSTORE PUSH1 0x4 PUSH1 0x20 SWAP1 DUP2 MSTORE PUSH1 0x40 DUP1 DUP4 KECCAK256 CALLER DUP5 MSTORE SWAP1 SWAP2 MSTORE SWAP1 KECCAK256 SLOAD SWAP1 SWAP2 POP DUP6 GT ISZERO PUSH2 0xBEF JUMPI PUSH1 0x40 MLOAD PUSH32 0x8C379A000000000000000000000000000000000000000000000000000000000 DUP2 MSTORE PUSH1 0x20 PUSH1 0x4 DUP3 ADD MSTORE PUSH1 0x13 PUSH1 0x24 DUP3 ADD MSTORE PUSH32 0x496E73756666696369656E742073686172657300000000000000000000000000 PUSH1 0x44 DUP3 ADD MSTORE PUSH1 0x64 ADD PUSH2 0x6C0 JUMP JUMPDEST PUSH20 0xFFFFFFFFFFFFFFFFFFFFFFFFFFFFFFFFFFFFFFFF DUP7 AND PUSH1 0x0 SWAP1 DUP2 MSTORE PUSH1 0x4 PUSH1 0x20 SWAP1 DUP2 MSTORE PUSH1 0x40 DUP1 DUP4 KECCAK256 CALLER DUP5 MSTORE SWAP1 SWAP2 MSTORE SWAP1 KECCAK256 SLOAD PUSH2 0xC2B SWAP1 DUP7 SWAP1 PUSH2 0x1232 JUMP JUMPDEST PUSH20 0xFFFFFFFFFFFFFFFFFFFFFFFFFFFFFFFFFFFFFFFF DUP8 AND PUSH1 0x0 SWAP1 DUP2 MSTORE PUSH1 0x4 PUSH1 0x20 SWAP1 DUP2 MSTORE PUSH1 0x40 DUP1 DUP4 KECCAK256 CALLER DUP5 MSTORE SWAP1 SWAP2 MSTORE SWAP1 KECCAK256 SSTORE PUSH2 0xC66 DUP6 DUP6 PUSH2 0x1232 JUMP JUMPDEST PUSH20 0xFFFFFFFFFFFFFFFFFFFFFFFFFFFFFFFFFFFFFFFF DUP8 AND PUSH1 0x0 SWAP1 DUP2 MSTORE PUSH1 0x5 PUSH1 0x20 MSTORE PUSH1 0x40 DUP2 KECCAK256 SWAP2 SWAP1 SWAP2 SSTORE PUSH32 0x2C76E7A47FD53E2854856AC3F0A5F3EE40D15CFAA82266357EA9779C486AB9C3 SWAP1 CALLER SWAP1 DUP9 SWAP1 DUP9 DUP8 DUP8 DUP8 PUSH2 0xCC3 DUP5 DUP14 PUSH2 0x1232 JUMP JUMPDEST PUSH1 0x40 DUP1 MLOAD PUSH20 0xFFFFFFFFFFFFFFFFFFFFFFFFFFFFFFFFFFFFFFFF SWAP10 DUP11 AND DUP2 MSTORE SWAP8 SWAP1 SWAP9 AND PUSH1 0x20 DUP9 ADD MSTORE SWAP5 ISZERO ISZERO DUP7 DUP9 ADD MSTORE PUSH1 0x60 DUP7 ADD SWAP4 SWAP1 SWAP4 MSTORE PUSH1 0x80 DUP6 ADD SWAP2 SWAP1 SWAP2 MSTORE PUSH1 0xA0 DUP5 ADD MSTORE PUSH1 0xC0 DUP4 ADD MSTORE PUSH1 0xE0 DUP3 ADD MSTORE SWAP1 MLOAD SWAP1 DUP2 SWAP1 SUB PUSH2 0x100 ADD SWAP1 LOG1 PUSH1 0x0 CALLER DUP3 PUSH2 0xD2A DUP6 DUP8 PUSH2 0x1232 JUMP JUMPDEST PUSH2 0xD34 SWAP2 SWAP1 PUSH2 0x1232 JUMP JUMPDEST PUSH1 0x40 MLOAD PUSH1 0x0 DUP2 DUP2 DUP2 DUP6 DUP8 GAS CALL SWAP3 POP POP POP RETURNDATASIZE DUP1 PUSH1 0x0 DUP2 EQ PUSH2 0xD70 JUMPI PUSH1 0x40 MLOAD SWAP2 POP PUSH1 0x1F NOT PUSH1 0x3F RETURNDATASIZE ADD AND DUP3 ADD PUSH1 0x40 MSTORE RETURNDATASIZE DUP3 MSTORE RETURNDATASIZE PUSH1 0x0 PUSH1 0x20 DUP5 ADD RETURNDATACOPY PUSH2 0xD75 JUMP JUMPDEST PUSH1 0x60 SWAP2 POP JUMPDEST POP POP PUSH1 0x1 SLOAD PUSH1 0x40 MLOAD SWAP2 SWAP3 POP PUSH1 0x0 SWAP2 PUSH20 0xFFFFFFFFFFFFFFFFFFFFFFFFFFFFFFFFFFFFFFFF SWAP1 SWAP2 AND SWAP1 DUP6 SWAP1 DUP4 DUP2 DUP2 DUP2 DUP6 DUP8 GAS CALL SWAP3 POP POP POP RETURNDATASIZE DUP1 PUSH1 0x0 DUP2 EQ PUSH2 0xDD6 JUMPI PUSH1 0x40 MLOAD SWAP2 POP PUSH1 0x1F NOT PUSH1 0x3F RETURNDATASIZE ADD AND DUP3 ADD PUSH1 0x40 MSTORE RETURNDATASIZE DUP3 MSTORE RETURNDATASIZE PUSH1 0x0 PUSH1 0x20 DUP5 ADD RETURNDATACOPY PUSH2 0xDDB JUMP JUMPDEST PUSH1 0x60 SWAP2 POP JUMPDEST POP POP SWAP1 POP PUSH1 0x0 DUP9 PUSH20 0xFFFFFFFFFFFFFFFFFFFFFFFFFFFFFFFFFFFFFFFF AND DUP5 PUSH1 0x40 MLOAD PUSH1 0x0 PUSH1 0x40 MLOAD DUP1 DUP4 SUB DUP2 DUP6 DUP8 GAS CALL SWAP3 POP POP POP RETURNDATASIZE DUP1 PUSH1 0x0 DUP2 EQ PUSH2 0xE39 JUMPI PUSH1 0x40 MLOAD SWAP2 POP PUSH1 0x1F NOT PUSH1 0x3F RETURNDATASIZE ADD AND DUP3 ADD PUSH1 0x40 MSTORE RETURNDATASIZE DUP3 MSTORE RETURNDATASIZE PUSH1 0x0 PUSH1 0x20 DUP5 ADD RETURNDATACOPY PUSH2 0xE3E JUMP JUMPDEST PUSH1 0x60 SWAP2 POP JUMPDEST POP POP SWAP1 POP DUP3 DUP1 ISZERO PUSH2 0xE4C JUMPI POP DUP2 JUMPDEST DUP1 ISZERO PUSH2 0xE55 JUMPI POP DUP1 JUMPDEST PUSH2 0xEBB JUMPI PUSH1 0x40 MLOAD PUSH32 0x8C379A000000000000000000000000000000000000000000000000000000000 DUP2 MSTORE PUSH1 0x20 PUSH1 0x4 DUP3 ADD MSTORE PUSH1 0x14 PUSH1 0x24 DUP3 ADD MSTORE PUSH32 0x556E61626C6520746F2073656E642066756E6473000000000000000000000000 PUSH1 0x44 DUP3 ADD MSTORE PUSH1 0x64 ADD PUSH2 0x6C0 JUMP JUMPDEST POP POP POP POP POP POP POP POP POP JUMP JUMPDEST PUSH2 0xECE PUSH2 0xFCC JUMP JUMPDEST PUSH20 0xFFFFFFFFFFFFFFFFFFFFFFFFFFFFFFFFFFFFFFFF DUP2 AND PUSH2 0xF71 JUMPI PUSH1 0x40 MLOAD PUSH32 0x8C379A000000000000000000000000000000000000000000000000000000000 DUP2 MSTORE PUSH1 0x20 PUSH1 0x4 DUP3 ADD MSTORE PUSH1 0x26 PUSH1 0x24 DUP3 ADD MSTORE PUSH32 0x4F776E61626C653A206E6577206F776E657220697320746865207A65726F2061 PUSH1 0x44 DUP3 ADD MSTORE PUSH32 0x6464726573730000000000000000000000000000000000000000000000000000 PUSH1 0x64 DUP3 ADD MSTORE PUSH1 0x84 ADD PUSH2 0x6C0 JUMP JUMPDEST PUSH2 0xF7A DUP2 PUSH2 0x104D JUMP JUMPDEST POP JUMP JUMPDEST PUSH2 0xF85 PUSH2 0xFCC JUMP JUMPDEST PUSH1 0x1 DUP1 SLOAD PUSH32 0xFFFFFFFFFFFFFFFFFFFFFFFF0000000000000000000000000000000000000000 AND PUSH20 0xFFFFFFFFFFFFFFFFFFFFFFFFFFFFFFFFFFFFFFFF SWAP3 SWAP1 SWAP3 AND SWAP2 SWAP1 SWAP2 OR SWAP1 SSTORE JUMP JUMPDEST PUSH1 0x0 SLOAD PUSH20 0xFFFFFFFFFFFFFFFFFFFFFFFFFFFFFFFFFFFFFFFF AND CALLER EQ PUSH2 0xA1A JUMPI PUSH1 0x40 MLOAD PUSH32 0x8C379A000000000000000000000000000000000000000000000000000000000 DUP2 MSTORE PUSH1 0x20 PUSH1 0x4 DUP3 ADD DUP2 SWAP1 MSTORE PUSH1 0x24 DUP3 ADD MSTORE PUSH32 0x4F776E61626C653A2063616C6C6572206973206E6F7420746865206F776E6572 PUSH1 0x44 DUP3 ADD MSTORE PUSH1 0x64 ADD PUSH2 0x6C0 JUMP JUMPDEST PUSH1 0x0 DUP1 SLOAD PUSH20 0xFFFFFFFFFFFFFFFFFFFFFFFFFFFFFFFFFFFFFFFF DUP4 DUP2 AND PUSH32 0xFFFFFFFFFFFFFFFFFFFFFFFF0000000000000000000000000000000000000000 DUP4 AND DUP2 OR DUP5 SSTORE PUSH1 0x40 MLOAD SWAP2 SWAP1 SWAP3 AND SWAP3 DUP4 SWAP2 PUSH32 0x8BE0079C531659141344CD1FD0A4F28419497F9722A3DAAFE3B4186F6B6457E0 SWAP2 SWAP1 LOG3 POP POP JUMP JUMPDEST DUP1 CALLDATALOAD PUSH20 0xFFFFFFFFFFFFFFFFFFFFFFFFFFFFFFFFFFFFFFFF DUP2 AND DUP2 EQ PUSH2 0x10E6 JUMPI PUSH1 0x0 DUP1 REVERT JUMPDEST SWAP2 SWAP1 POP JUMP JUMPDEST PUSH1 0x0 DUP1 PUSH1 0x40 DUP4 DUP6 SUB SLT ISZERO PUSH2 0x10FE JUMPI PUSH1 0x0 DUP1 REVERT JUMPDEST PUSH2 0x1107 DUP4 PUSH2 0x10C2 JUMP JUMPDEST SWAP2 POP PUSH2 0x1115 PUSH1 0x20 DUP5 ADD PUSH2 0x10C2 JUMP JUMPDEST SWAP1 POP SWAP3 POP SWAP3 SWAP1 POP JUMP JUMPDEST PUSH1 0x0 DUP1 PUSH1 0x40 DUP4 DUP6 SUB SLT ISZERO PUSH2 0x1131 JUMPI PUSH1 0x0 DUP1 REVERT JUMPDEST PUSH2 0x113A DUP4 PUSH2 0x10C2 JUMP JUMPDEST SWAP5 PUSH1 0x20 SWAP4 SWAP1 SWAP4 ADD CALLDATALOAD SWAP4 POP POP POP JUMP JUMPDEST PUSH1 0x0 PUSH1 0x20 DUP3 DUP5 SUB SLT ISZERO PUSH2 0x115A JUMPI PUSH1 0x0 DUP1 REVERT JUMPDEST POP CALLDATALOAD SWAP2 SWAP1 POP JUMP JUMPDEST PUSH1 0x0 DUP1 PUSH1 0x40 DUP4 DUP6 SUB SLT ISZERO PUSH2 0x1174 JUMPI PUSH1 0x0 DUP1 REVERT JUMPDEST POP POP DUP1 CALLDATALOAD SWAP3 PUSH1 0x20 SWAP1 SWAP2 ADD CALLDATALOAD SWAP2 POP JUMP JUMPDEST PUSH1 0x0 PUSH1 0x20 DUP3 DUP5 SUB SLT ISZERO PUSH2 0x1195 JUMPI PUSH1 0x0 DUP1 REVERT JUMPDEST PUSH2 0x4C4 DUP3 PUSH2 0x10C2 JUMP JUMPDEST PUSH32 0x4E487B7100000000000000000000000000000000000000000000000000000000 PUSH1 0x0 MSTORE PUSH1 0x11 PUSH1 0x4 MSTORE PUSH1 0x24 PUSH1 0x0 REVERT JUMPDEST DUP1 DUP3 MUL DUP2 ISZERO DUP3 DUP3 DIV DUP5 EQ OR PUSH2 0x420 JUMPI PUSH2 0x420 PUSH2 0x119E JUMP JUMPDEST PUSH1 0x0 DUP3 PUSH2 0x121A JUMPI PUSH32 0x4E487B7100000000000000000000000000000000000000000000000000000000 PUSH1 0x0 MSTORE PUSH1 0x12 PUSH1 0x4 MSTORE PUSH1 0x24 PUSH1 0x0 REVERT JUMPDEST POP DIV SWAP1 JUMP JUMPDEST DUP1 DUP3 ADD DUP1 DUP3 GT ISZERO PUSH2 0x420 JUMPI PUSH2 0x420 PUSH2 0x119E JUMP JUMPDEST DUP2 DUP2 SUB DUP2 DUP2 GT ISZERO PUSH2 0x420 JUMPI PUSH2 0x420 PUSH2 0x119E JUMP INVALID LOG2 PUSH5 0x6970667358 0x22 SLT KECCAK256 CALLER SWAP5 SELFBALANCE PUSH10 0x2A9DDD622301D72D341C EXTCODEHASH 0xE6 0xDE STATICCALL SWAP4 0xEE SWAP8 SWAP5 0x5E DUP8 0xC 0x49 PUSH14 0x2762E1E63364736F6C6343000812 STOP CALLER "},"methodIdentifiers":{"buyShares(address,uint256)":"6945b123","getBuyPrice(address,uint256)":"4635256e","getBuyPriceAfterFee(address,uint256)":"0f026f6d","getPrice(uint256,uint256)":"5cf4ee91","getSellPrice(address,uint256)":"9ae71781","getSellPriceAfterFee(address,uint256)":"2267a89c","owner()":"8da5cb5b","protocolFeeDestination()":"4ce7957c","protocolFeePercent()":"d6e6eb9f","renounceOwnership()":"715018a6","sellShares(address,uint256)":"b51d0534","setFeeDestination(address)":"fbe53234","setProtocolFeePercent(uint256)":"a4983421","setSubjectFeePercent(uint256)":"5a8a764e","sharesBalance(address,address)":"020235ff","sharesSupply(address)":"f9931be0","subjectFeePercent()":"24dc441d","transferOwnership(address)":"f2fde38b"}}}}}