{
  "_format": "hh-sol-artifact-1",
  "contractName": "FriendtechSharesV1",
  "sourceName": "contracts/FriendtechSharesV1.sol",
  "abi": [
    {
      "anonymous": false,
      "inputs": [
        {
          "indexed": true,
          "internalType": "address",
          "name": "previousOwner",
          "type": "address"
        },
        {
          "indexed": true,
          "internalType": "address",
          "name": "newOwner",
          "type": "address"
        }
      ],
      "name": "OwnershipTransferred",
      "type": "event"
    },
    {
      "anonymous": false,
      "inputs": [
        {
          "indexed": false,
          "internalType": "address",
          "name": "trader",
          "type": "address"
        },
        {
          "indexed": false,
          "internalType": "address",
          "name": "subject",
          "type": "address"
        },
        {
          "indexed": false,
          "internalType": "bool",
          "name": "isBuy",
          "type": "bool"
        },
        {
          "indexed": false,
          "internalType": "uint256",
          "name": "shareAmount",
          "type": "uint256"
        },
        {
          "indexed": false,
          "internalType": "uint256",
          "name": "ethAmount",
          "type": "uint256"
        },
        {
          "indexed": false,
          "internalType": "uint256",
          "name": "protocolEthAmount",
          "type": "uint256"
        },
        {
          "indexed": false,
          "internalType": "uint256",
          "name": "subjectEthAmount",
          "type": "uint256"
        },
        {
          "indexed": false,
          "internalType": "uint256",
          "name": "supply",
          "type": "uint256"
        }
      ],
      "name": "Trade",
      "type": "event"
    },
    {
      "inputs": [
        {
          "internalType": "address",
          "name": "sharesSubject",
          "type": "address"
        },
        {
          "internalType": "uint256",
          "name": "amount",
          "type": "uint256"
        }
      ],
      "name": "buyShares",
      "outputs": [],
      "stateMutability": "payable",
      "type": "function"
    },
    {
      "inputs": [
        {
          "internalType": "address",
          "name": "sharesSubject",
          "type": "address"
        },
        {
          "internalType": "uint256",
          "name": "amount",
          "type": "uint256"
        }
      ],
      "name": "getBuyPrice",
      "outputs": [
        {
          "internalType": "uint256",
          "name": "",
          "type": "uint256"
        }
      ],
      "stateMutability": "view",
      "type": "function"
    },
    {
      "inputs": [
        {
          "internalType": "address",
          "name": "sharesSubject",
          "type": "address"
        },
        {
          "internalType": "uint256",
          "name": "amount",
          "type": "uint256"
        }
      ],
      "name": "getBuyPriceAfterFee",
      "outputs": [
        {
          "internalType": "uint256",
          "name": "",
          "type": "uint256"
        }
      ],
      "stateMutability": "view",
      "type": "function"
    },
    {
      "inputs": [
        {
          "internalType": "uint256",
          "name": "supply",
          "type": "uint256"
        },
        {
          "internalType": "uint256",
          "name": "amount",
          "type": "uint256"
        }
      ],
      "name": "getPrice",
      "outputs": [
        {
          "internalType": "uint256",
          "name": "",
          "type": "uint256"
        }
      ],
      "stateMutability": "pure",
      "type": "function"
    },
    {
      "inputs": [
        {
          "internalType": "address",
          "name": "sharesSubject",
          "type": "address"
        },
        {
          "internalType": "uint256",
          "name": "amount",
          "type": "uint256"
        }
      ],
      "name": "getSellPrice",
      "outputs": [
        {
          "internalType": "uint256",
          "name": "",
          "type": "uint256"
        }
      ],
      "stateMutability": "view",
      "type": "function"
    },
    {
      "inputs": [
        {
          "internalType": "address",
          "name": "sharesSubject",
          "type": "address"
        },
        {
          "internalType": "uint256",
          "name": "amount",
          "type": "uint256"
        }
      ],
      "name": "getSellPriceAfterFee",
      "outputs": [
        {
          "internalType": "uint256",
          "name": "",
          "type": "uint256"
        }
      ],
      "stateMutability": "view",
      "type": "function"
    },
    {
      "inputs": [],
      "name": "owner",
      "outputs": [
        {
          "internalType": "address",
          "name": "",
          "type": "address"
        }
      ],
      "stateMutability": "view",
      "type": "function"
    },
    {
      "inputs": [],
      "name": "protocolFeeDestination",
      "outputs": [
        {
          "internalType": "address",
          "name": "",
          "type": "address"
        }
      ],
      "stateMutability": "view",
      "type": "function"
    },
    {
      "inputs": [],
      "name": "protocolFeePercent",
      "outputs": [
        {
          "internalType": "uint256",
          "name": "",
          "type": "uint256"
        }
      ],
      "stateMutability": "view",
      "type": "function"
    },
    {
      "inputs": [],
      "name": "renounceOwnership",
      "outputs": [],
      "stateMutability": "nonpayable",
      "type": "function"
    },
    {
      "inputs": [
        {
          "internalType": "address",
          "name": "sharesSubject",
          "type": "address"
        },
        {
          "internalType": "uint256",
          "name": "amount",
          "type": "uint256"
        }
      ],
      "name": "sellShares",
      "outputs": [],
      "stateMutability": "payable",
      "type": "function"
    },
    {
      "inputs": [
        {
          "internalType": "address",
          "name": "_feeDestination",
          "type": "address"
        }
      ],
      "name": "setFeeDestination",
      "outputs": [],
      "stateMutability": "nonpayable",
      "type": "function"
    },
    {
      "inputs": [
        {
          "internalType": "uint256",
          "name": "_feePercent",
          "type": "uint256"
        }
      ],
      "name": "setProtocolFeePercent",
      "outputs": [],
      "stateMutability": "nonpayable",
      "type": "function"
    },
    {
      "inputs": [
        {
          "internalType": "uint256",
          "name": "_feePercent",
          "type": "uint256"
        }
      ],
      "name": "setSubjectFeePercent",
      "outputs": [],
      "stateMutability": "nonpayable",
      "type": "function"
    },
    {
      "inputs": [
        {
          "internalType": "address",
          "name": "",
          "type": "address"
        },
        {
          "internalType": "address",
          "name": "",
          "type": "address"
        }
      ],
      "name": "sharesBalance",
      "outputs": [
        {
          "internalType": "uint256",
          "name": "",
          "type": "uint256"
        }
      ],
      "stateMutability": "view",
      "type": "function"
    },
    {
      "inputs": [
        {
          "internalType": "address",
          "name": "",
          "type": "address"
        }
      ],
      "name": "sharesSupply",
      "outputs": [
        {
          "internalType": "uint256",
          "name": "",
          "type": "uint256"
        }
      ],
      "stateMutability": "view",
      "type": "function"
    },
    {
      "inputs": [],
      "name": "subjectFeePercent",
      "outputs": [
        {
          "internalType": "uint256",
          "name": "",
          "type": "uint256"
        }
      ],
      "stateMutability": "view",
      "type": "function"
    },
    {
      "inputs": [
        {
          "internalType": "address",
          "name": "newOwner",
          "type": "address"
        }
      ],
      "name": "transferOwnership",
      "outputs": [],
      "stateMutability": "nonpayable",
      "type": "function"
    }
  ],
  "bytecode": "0x608060405234801561001057600080fd5b5061001a3361001f565b61006f565b600080546001600160a01b038381166001600160a01b0319831681178455604051919092169283917f8be0079c531659141344cd1fd0a4f28419497f9722a3daafe3b4186f6b6457e09190a35050565b61127b8061007e6000396000f3fe6080604052600436106101295760003560e01c8063715018a6116100a5578063b51d053411610074578063f2fde38b11610059578063f2fde38b1461033f578063f9931be01461035f578063fbe532341461038c57600080fd5b8063b51d053414610316578063d6e6eb9f1461032957600080fd5b8063715018a6146102965780638da5cb5b146102ab5780639ae71781146102d6578063a4983421146102f657600080fd5b80634635256e116100fc5780635a8a764e116100e15780635a8a764e146102415780635cf4ee91146102635780636945b1231461028357600080fd5b80634635256e146101cf5780634ce7957c146101ef57600080fd5b8063020235ff1461012e5780630f026f6d146101795780632267a89c1461019957806324dc441d146101b9575b600080fd5b34801561013a57600080fd5b506101666101493660046110eb565b600460209081526000928352604080842090915290825290205481565b6040519081526020015b60405180910390f35b34801561018557600080fd5b5061016661019436600461111e565b6103ac565b3480156101a557600080fd5b506101666101b436600461111e565b610426565b3480156101c557600080fd5b5061016660035481565b3480156101db57600080fd5b506101666101ea36600461111e565b610494565b3480156101fb57600080fd5b5060015461021c9073ffffffffffffffffffffffffffffffffffffffff1681565b60405173ffffffffffffffffffffffffffffffffffffffff9091168152602001610170565b34801561024d57600080fd5b5061026161025c366004611148565b6104cb565b005b34801561026f57600080fd5b5061016661027e366004611161565b6104d8565b61026161029136600461111e565b6105ef565b3480156102a257600080fd5b50610261610a08565b3480156102b757600080fd5b5060005473ffffffffffffffffffffffffffffffffffffffff1661021c565b3480156102e257600080fd5b506101666102f136600461111e565b610a1c565b34801561030257600080fd5b50610261610311366004611148565b610a57565b61026161032436600461111e565b610a64565b34801561033557600080fd5b5061016660025481565b34801561034b57600080fd5b5061026161035a366004611183565b610ec6565b34801561036b57600080fd5b5061016661037a366004611183565b60056020526000908152604090205481565b34801561039857600080fd5b506102616103a7366004611183565b610f7d565b6000806103b98484610494565b90506000670de0b6b3a7640000600254836103d491906111cd565b6103de91906111e4565b90506000670de0b6b3a7640000600354846103f991906111cd565b61040391906111e4565b905080610410838561121f565b61041a919061121f565b93505050505b92915050565b6000806104338484610a1c565b90506000670de0b6b3a76400006002548361044e91906111cd565b61045891906111e4565b90506000670de0b6b3a76400006003548461047391906111cd565b61047d91906111e4565b90508061048a8385611232565b61041a9190611232565b73ffffffffffffffffffffffffffffffffffffffff82166000908152600560205260408120546104c490836104d8565b9392505050565b6104d3610fcc565b600355565b60008083156105335760066104ee600186611232565b6104f99060026111cd565b61050490600161121f565b85610510600182611232565b61051a91906111cd565b61052491906111cd565b61052e91906111e4565b610536565b60005b90506000841580156105485750836001145b6105bd5760068461055a600188611232565b610564919061121f565b61056f9060026111cd565b61057a90600161121f565b610584868861121f565b8661059060018a611232565b61059a919061121f565b6105a491906111cd565b6105ae91906111cd565b6105b891906111e4565b6105c0565b60005b905060006105ce8383611232565b9050613e806105e582670de0b6b3a76400006111cd565b61041a91906111e4565b73ffffffffffffffffffffffffffffffffffffffff821660009081526005602052604090205480151580610638575073ffffffffffffffffffffffffffffffffffffffff831633145b6106c9576040517f08c379a000000000000000000000000000000000000000000000000000000000815260206004820152603060248201527f4f6e6c79207468652073686172657327207375626a6563742063616e2062757960448201527f207468652066697273742073686172650000000000000000000000000000000060648201526084015b60405180910390fd5b60006106d582846104d8565b90506000670de0b6b3a7640000600254836106f091906111cd565b6106fa91906111e4565b90506000670de0b6b3a76400006003548461071591906111cd565b61071f91906111e4565b90508061072c838561121f565b610736919061121f565b34101561079f576040517f08c379a000000000000000000000000000000000000000000000000000000000815260206004820152601460248201527f496e73756666696369656e74207061796d656e7400000000000000000000000060448201526064016106c0565b73ffffffffffffffffffffffffffffffffffffffff861660009081526004602090815260408083203384529091529020546107db90869061121f565b73ffffffffffffffffffffffffffffffffffffffff87166000908152600460209081526040808320338452909152902055610816858561121f565b73ffffffffffffffffffffffffffffffffffffffff87166000908152600560205260409020557f2c76e7a47fd53e2854856ac3f0a5f3ee40d15cfaa82266357ea9779c486ab9c3338760018887878761086f848d61121f565b6040805173ffffffffffffffffffffffffffffffffffffffff998a168152979098166020880152941515868801526060860193909352608085019190915260a084015260c083015260e08201529051908190036101000190a160015460405160009173ffffffffffffffffffffffffffffffffffffffff169084908381818185875af1925050503d8060008114610922576040519150601f19603f3d011682016040523d82523d6000602084013e610927565b606091505b5050905060008773ffffffffffffffffffffffffffffffffffffffff168360405160006040518083038185875af1925050503d8060008114610985576040519150601f19603f3d011682016040523d82523d6000602084013e61098a565b606091505b505090508180156109985750805b6109fe576040517f08c379a000000000000000000000000000000000000000000000000000000000815260206004820152601460248201527f556e61626c6520746f2073656e642066756e647300000000000000000000000060448201526064016106c0565b5050505050505050565b610a10610fcc565b610a1a600061104d565b565b73ffffffffffffffffffffffffffffffffffffffff82166000908152600560205260408120546104c490610a51908490611232565b836104d8565b610a5f610fcc565b600255565b73ffffffffffffffffffffffffffffffffffffffff8216600090815260056020526040902054818111610af3576040517f08c379a000000000000000000000000000000000000000000000000000000000815260206004820152601a60248201527f43616e6e6f742073656c6c20746865206c61737420736861726500000000000060448201526064016106c0565b6000610b08610b028484611232565b846104d8565b90506000670de0b6b3a764000060025483610b2391906111cd565b610b2d91906111e4565b90506000670de0b6b3a764000060035484610b4891906111cd565b610b5291906111e4565b73ffffffffffffffffffffffffffffffffffffffff87166000908152600460209081526040808320338452909152902054909150851115610bef576040517f08c379a000000000000000000000000000000000000000000000000000000000815260206004820152601360248201527f496e73756666696369656e74207368617265730000000000000000000000000060448201526064016106c0565b73ffffffffffffffffffffffffffffffffffffffff86166000908152600460209081526040808320338452909152902054610c2b908690611232565b73ffffffffffffffffffffffffffffffffffffffff87166000908152600460209081526040808320338452909152902055610c668585611232565b73ffffffffffffffffffffffffffffffffffffffff87166000908152600560205260408120919091557f2c76e7a47fd53e2854856ac3f0a5f3ee40d15cfaa82266357ea9779c486ab9c3903390889088878787610cc3848d611232565b6040805173ffffffffffffffffffffffffffffffffffffffff998a168152979098166020880152941515868801526060860193909352608085019190915260a084015260c083015260e08201529051908190036101000190a160003382610d2a8587611232565b610d349190611232565b604051600081818185875af1925050503d8060008114610d70576040519150601f19603f3d011682016040523d82523d6000602084013e610d75565b606091505b505060015460405191925060009173ffffffffffffffffffffffffffffffffffffffff9091169085908381818185875af1925050503d8060008114610dd6576040519150601f19603f3d011682016040523d82523d6000602084013e610ddb565b606091505b5050905060008873ffffffffffffffffffffffffffffffffffffffff168460405160006040518083038185875af1925050503d8060008114610e39576040519150601f19603f3d011682016040523d82523d6000602084013e610e3e565b606091505b50509050828015610e4c5750815b8015610e555750805b610ebb576040517f08c379a000000000000000000000000000000000000000000000000000000000815260206004820152601460248201527f556e61626c6520746f2073656e642066756e647300000000000000000000000060448201526064016106c0565b505050505050505050565b610ece610fcc565b73ffffffffffffffffffffffffffffffffffffffff8116610f71576040517f08c379a000000000000000000000000000000000000000000000000000000000815260206004820152602660248201527f4f776e61626c653a206e6577206f776e657220697320746865207a65726f206160448201527f646472657373000000000000000000000000000000000000000000000000000060648201526084016106c0565b610f7a8161104d565b50565b610f85610fcc565b600180547fffffffffffffffffffffffff00000000000000000000000000000000000000001673ffffffffffffffffffffffffffffffffffffffff92909216919091179055565b60005473ffffffffffffffffffffffffffffffffffffffff163314610a1a576040517f08c379a000000000000000000000000000000000000000000000000000000000815260206004820181905260248201527f4f776e61626c653a2063616c6c6572206973206e6f7420746865206f776e657260448201526064016106c0565b6000805473ffffffffffffffffffffffffffffffffffffffff8381167fffffffffffffffffffffffff0000000000000000000000000000000000000000831681178455604051919092169283917f8be0079c531659141344cd1fd0a4f28419497f9722a3daafe3b4186f6b6457e09190a35050565b803573ffffffffffffffffffffffffffffffffffffffff811681146110e657600080fd5b919050565b600080604083850312156110fe57600080fd5b611107836110c2565b9150611115602084016110c2565b90509250929050565b6000806040838503121561113157600080fd5b61113a836110c2565b946020939093013593505050565b60006020828403121561115a57600080fd5b5035919050565b6000806040838503121561117457600080fd5b50508035926020909101359150565b60006020828403121561119557600080fd5b6104c4826110c2565b7f4e487b7100000000000000000000000000000000000000000000000000000000600052601160045260246000fd5b80820281158282048414176104205761042061119e565b60008261121a577f4e487b7100000000000000000000000000000000000000000000000000000000600052601260045260246000fd5b500490565b808201808211156104205761042061119e565b818103818111156104205761042061119e56fea2646970667358221220339447692a9ddd622301d72d341c3fe6defa93ee97945e870c496d2762e1e63364736f6c63430008120033",
  "linkReferences": {},
  "deployedLinkReferences": {}
}